{
  "_format": "hh-sol-artifact-1",
  "contractName": "PolyList",
  "sourceName": "contracts/PolyList.sol",
  "abi": [
    {
      "inputs": [
        {
          "internalType": "uint256",
          "name": "",
          "type": "uint256"
        }
      ],
      "name": "allJobs",
      "outputs": [
        {
          "internalType": "string",
          "name": "job",
          "type": "string"
        },
        {
          "internalType": "address",
          "name": "recruiter",
          "type": "address"
        },
        {
          "internalType": "uint256",
          "name": "jobID",
          "type": "uint256"
        },
        {
          "internalType": "string",
          "name": "description",
          "type": "string"
        },
        {
          "internalType": "uint256",
          "name": "price",
          "type": "uint256"
        },
        {
          "internalType": "string",
          "name": "gitLink",
          "type": "string"
        },
        {
          "internalType": "bool",
          "name": "isOpen",
          "type": "bool"
        }
      ],
      "stateMutability": "view",
      "type": "function"
    },
    {
      "inputs": [
        {
          "internalType": "uint256",
          "name": "jobID",
          "type": "uint256"
        },
        {
          "internalType": "uint256",
          "name": "submissionID",
          "type": "uint256"
        }
      ],
      "name": "chooseProposal",
      "outputs": [],
      "stateMutability": "nonpayable",
      "type": "function"
    },
    {
      "inputs": [],
      "name": "getAllJobs",
      "outputs": [
        {
          "components": [
            {
              "internalType": "string",
              "name": "job",
              "type": "string"
            },
            {
              "internalType": "address",
              "name": "recruiter",
              "type": "address"
            },
            {
              "internalType": "uint256",
              "name": "jobID",
              "type": "uint256"
            },
            {
              "internalType": "string",
              "name": "description",
              "type": "string"
            },
            {
              "internalType": "uint256",
              "name": "price",
              "type": "uint256"
            },
            {
              "internalType": "string",
              "name": "gitLink",
              "type": "string"
            },
            {
              "internalType": "bool",
              "name": "isOpen",
              "type": "bool"
            }
          ],
          "internalType": "struct PolyList.jobDetails[]",
          "name": "jobs",
          "type": "tuple[]"
        }
      ],
      "stateMutability": "view",
      "type": "function"
    },
    {
      "inputs": [
        {
          "internalType": "uint256",
          "name": "jobID",
          "type": "uint256"
        }
      ],
      "name": "getAllProposals",
      "outputs": [
        {
          "components": [
            {
              "internalType": "uint256",
              "name": "submissionId",
              "type": "uint256"
            },
            {
              "internalType": "string",
              "name": "gitLink",
              "type": "string"
            },
            {
              "internalType": "string",
              "name": "contact",
              "type": "string"
            },
            {
              "internalType": "address payable",
              "name": "dev",
              "type": "address"
            }
          ],
          "internalType": "struct PolyList.submissionDetails[]",
          "name": "submissions",
          "type": "tuple[]"
        }
      ],
      "stateMutability": "view",
      "type": "function"
    },
    {
      "inputs": [],
      "name": "newDeveloper",
      "outputs": [
        {
          "internalType": "bool",
          "name": "",
          "type": "bool"
        }
      ],
      "stateMutability": "nonpayable",
      "type": "function"
    },
    {
      "inputs": [
        {
          "internalType": "string",
          "name": "job",
          "type": "string"
        },
        {
          "internalType": "string",
          "name": "description",
          "type": "string"
        },
        {
          "internalType": "string",
          "name": "gitLink",
          "type": "string"
        }
      ],
      "name": "newJob",
      "outputs": [
        {
          "internalType": "bool",
          "name": "",
          "type": "bool"
        }
      ],
      "stateMutability": "payable",
      "type": "function"
    },
    {
      "inputs": [],
      "name": "newRecruiter",
      "outputs": [
        {
          "internalType": "bool",
          "name": "",
          "type": "bool"
        }
      ],
      "stateMutability": "nonpayable",
      "type": "function"
    },
    {
      "inputs": [
        {
          "internalType": "address payable",
          "name": "dev",
          "type": "address"
        },
        {
          "internalType": "uint256",
          "name": "jobID",
          "type": "uint256"
        }
      ],
      "name": "openStream",
      "outputs": [],
      "stateMutability": "nonpayable",
      "type": "function"
    },
    {
      "inputs": [
        {
          "internalType": "address",
          "name": "",
          "type": "address"
        }
      ],
      "name": "registeredRoles",
      "outputs": [
        {
          "internalType": "enum PolyList.Role",
          "name": "",
          "type": "uint8"
        }
      ],
      "stateMutability": "view",
      "type": "function"
    },
    {
      "inputs": [
        {
          "internalType": "string",
          "name": "workLink",
          "type": "string"
        },
        {
          "internalType": "string",
          "name": "contact",
          "type": "string"
        },
        {
          "internalType": "uint256",
          "name": "jobID",
          "type": "uint256"
        }
      ],
      "name": "submitProposal",
      "outputs": [],
      "stateMutability": "nonpayable",
      "type": "function"
    }
  ],
  "bytecode": "0x608060405234801561001057600080fd5b506126eb806100206000396000f3fe6080604052600436106100915760003560e01c80639ef0f2c6116100595780639ef0f2c614610188578063aa2053a9146101c5578063ba8554c7146101ee578063bf8ca1aa14610217578063c61c46061461025457610091565b806364a80c0c146100965780637bae1614146100bf5780638757cf72146100ea57806390c3e9791461011a578063965a79fb1461015d575b600080fd5b3480156100a257600080fd5b506100bd60048036038101906100b891906119ce565b61027f565b005b3480156100cb57600080fd5b506100d46104bd565b6040516100e1919061204c565b60405180910390f35b61010460048036038101906100ff9190611a0a565b610653565b604051610111919061204c565b60405180910390f35b34801561012657600080fd5b50610141600480360381019061013c9190611b20565b6108ee565b6040516101549796959493929190612082565b60405180910390f35b34801561016957600080fd5b50610172610b05565b60405161017f9190612008565b60405180910390f35b34801561019457600080fd5b506101af60048036038101906101aa91906119a5565b610d9f565b6040516101bc9190612067565b60405180910390f35b3480156101d157600080fd5b506101ec60048036038101906101e79190611b49565b610dbf565b005b3480156101fa57600080fd5b5061021560048036038101906102109190611aa1565b611210565b005b34801561022357600080fd5b5061023e60048036038101906102399190611b20565b6114cf565b60405161024b919061202a565b60405180910390f35b34801561026057600080fd5b506102696116c5565b604051610276919061204c565b60405180910390f35b6002808111156102b8577f4e487b7100000000000000000000000000000000000000000000000000000000600052602160045260246000fd5b600260003373ffffffffffffffffffffffffffffffffffffffff1673ffffffffffffffffffffffffffffffffffffffff16815260200190815260200160002060009054906101000a900460ff16600281111561033d577f4e487b7100000000000000000000000000000000000000000000000000000000600052602160045260246000fd5b1461037d576040517f08c379a000000000000000000000000000000000000000000000000000000000815260040161037490612126565b60405180910390fd5b3373ffffffffffffffffffffffffffffffffffffffff16600082815481106103ce577f4e487b7100000000000000000000000000000000000000000000000000000000600052603260045260246000fd5b906000526020600020906007020160010160009054906101000a900473ffffffffffffffffffffffffffffffffffffffff1673ffffffffffffffffffffffffffffffffffffffff1614610456576040517f08c379a000000000000000000000000000000000000000000000000000000000815260040161044d90612146565b60405180910390fd5b6000808281548110610491577f4e487b7100000000000000000000000000000000000000000000000000000000600052603260045260246000fd5b906000526020600020906007020160060160006101000a81548160ff0219169083151502179055505050565b60006002808111156104f8577f4e487b7100000000000000000000000000000000000000000000000000000000600052602160045260246000fd5b600260003373ffffffffffffffffffffffffffffffffffffffff1673ffffffffffffffffffffffffffffffffffffffff16815260200190815260200160002060009054906101000a900460ff16600281111561057d577f4e487b7100000000000000000000000000000000000000000000000000000000600052602160045260246000fd5b14156105be576040517f08c379a00000000000000000000000000000000000000000000000000000000081526004016105b5906121a6565b60405180910390fd5b6001600260003373ffffffffffffffffffffffffffffffffffffffff1673ffffffffffffffffffffffffffffffffffffffff16815260200190815260200160002060006101000a81548160ff02191690836002811115610647577f4e487b7100000000000000000000000000000000000000000000000000000000600052602160045260246000fd5b02179055506001905090565b600060028081111561068e577f4e487b7100000000000000000000000000000000000000000000000000000000600052602160045260246000fd5b600260003373ffffffffffffffffffffffffffffffffffffffff1673ffffffffffffffffffffffffffffffffffffffff16815260200190815260200160002060009054906101000a900460ff166002811115610713577f4e487b7100000000000000000000000000000000000000000000000000000000600052602160045260246000fd5b14610753576040517f08c379a000000000000000000000000000000000000000000000000000000000815260040161074a906121c6565b60405180910390fd5b6000341415610797576040517f08c379a000000000000000000000000000000000000000000000000000000000815260040161078e906121e6565b60405180910390fd5b60006040518060e001604052808681526020013373ffffffffffffffffffffffffffffffffffffffff1681526020016000805490508152602001858152602001348152602001848152602001600115158152509080600181540180825580915050600190039060005260206000209060070201600090919091909150600082015181600001908051906020019061082f92919061185b565b5060208201518160010160006101000a81548173ffffffffffffffffffffffffffffffffffffffff021916908373ffffffffffffffffffffffffffffffffffffffff16021790555060408201518160020155606082015181600301908051906020019061089d92919061185b565b506080820151816004015560a08201518160050190805190602001906108c492919061185b565b5060c08201518160060160006101000a81548160ff02191690831515021790555050509392505050565b600081815481106108fe57600080fd5b9060005260206000209060070201600091509050806000018054610921906123e7565b80601f016020809104026020016040519081016040528092919081815260200182805461094d906123e7565b801561099a5780601f1061096f5761010080835404028352916020019161099a565b820191906000526020600020905b81548152906001019060200180831161097d57829003601f168201915b5050505050908060010160009054906101000a900473ffffffffffffffffffffffffffffffffffffffff16908060020154908060030180546109db906123e7565b80601f0160208091040260200160405190810160405280929190818152602001828054610a07906123e7565b8015610a545780601f10610a2957610100808354040283529160200191610a54565b820191906000526020600020905b815481529060010190602001808311610a3757829003601f168201915b505050505090806004015490806005018054610a6f906123e7565b80601f0160208091040260200160405190810160405280929190818152602001828054610a9b906123e7565b8015610ae85780601f10610abd57610100808354040283529160200191610ae8565b820191906000526020600020905b815481529060010190602001808311610acb57829003601f168201915b5050505050908060060160009054906101000a900460ff16905087565b60606000805480602002602001604051908101604052809291908181526020016000905b82821015610d9657838290600052602060002090600702016040518060e0016040529081600082018054610b5c906123e7565b80601f0160208091040260200160405190810160405280929190818152602001828054610b88906123e7565b8015610bd55780601f10610baa57610100808354040283529160200191610bd5565b820191906000526020600020905b815481529060010190602001808311610bb857829003601f168201915b505050505081526020016001820160009054906101000a900473ffffffffffffffffffffffffffffffffffffffff1673ffffffffffffffffffffffffffffffffffffffff1673ffffffffffffffffffffffffffffffffffffffff16815260200160028201548152602001600382018054610c4e906123e7565b80601f0160208091040260200160405190810160405280929190818152602001828054610c7a906123e7565b8015610cc75780601f10610c9c57610100808354040283529160200191610cc7565b820191906000526020600020905b815481529060010190602001808311610caa57829003601f168201915b5050505050815260200160048201548152602001600582018054610cea906123e7565b80601f0160208091040260200160405190810160405280929190818152602001828054610d16906123e7565b8015610d635780601f10610d3857610100808354040283529160200191610d63565b820191906000526020600020905b815481529060010190602001808311610d4657829003601f168201915b505050505081526020016006820160009054906101000a900460ff16151515158152505081526020019060010190610b29565b50505050905090565b60026020528060005260406000206000915054906101000a900460ff1681565b600280811115610df8577f4e487b7100000000000000000000000000000000000000000000000000000000600052602160045260246000fd5b600260003373ffffffffffffffffffffffffffffffffffffffff1673ffffffffffffffffffffffffffffffffffffffff16815260200190815260200160002060009054906101000a900460ff166002811115610e7d577f4e487b7100000000000000000000000000000000000000000000000000000000600052602160045260246000fd5b14610ebd576040517f08c379a0000000000000000000000000000000000000000000000000000000008152600401610eb490612126565b60405180910390fd5b6000808381548110610ef8577f4e487b7100000000000000000000000000000000000000000000000000000000600052603260045260246000fd5b906000526020600020906007020160060160006101000a81548160ff0219169083151502179055506000600160008481526020019081526020016000208281548110610f6d577f4e487b7100000000000000000000000000000000000000000000000000000000600052603260045260246000fd5b906000526020600020906004020160405180608001604052908160008201548152602001600182018054610fa0906123e7565b80601f0160208091040260200160405190810160405280929190818152602001828054610fcc906123e7565b80156110195780601f10610fee57610100808354040283529160200191611019565b820191906000526020600020905b815481529060010190602001808311610ffc57829003601f168201915b50505050508152602001600282018054611032906123e7565b80601f016020809104026020016040519081016040528092919081815260200182805461105e906123e7565b80156110ab5780601f10611080576101008083540402835291602001916110ab565b820191906000526020600020905b81548152906001019060200180831161108e57829003601f168201915b505050505081526020016003820160009054906101000a900473ffffffffffffffffffffffffffffffffffffffff1673ffffffffffffffffffffffffffffffffffffffff1673ffffffffffffffffffffffffffffffffffffffff16815250509050600080826060015173ffffffffffffffffffffffffffffffffffffffff1660008681548110611164577f4e487b7100000000000000000000000000000000000000000000000000000000600052603260045260246000fd5b90600052602060002090600702016004015460405161118290611ff3565b60006040518083038185875af1925050503d80600081146111bf576040519150601f19603f3d011682016040523d82523d6000602084013e6111c4565b606091505b509150915081611209576040517f08c379a000000000000000000000000000000000000000000000000000000000815260040161120090612186565b60405180910390fd5b5050505050565b6001600281111561124a577f4e487b7100000000000000000000000000000000000000000000000000000000600052602160045260246000fd5b600260003373ffffffffffffffffffffffffffffffffffffffff1673ffffffffffffffffffffffffffffffffffffffff16815260200190815260200160002060009054906101000a900460ff1660028111156112cf577f4e487b7100000000000000000000000000000000000000000000000000000000600052602160045260246000fd5b1461130f576040517f08c379a000000000000000000000000000000000000000000000000000000000815260040161130690612166565b60405180910390fd5b600115156000828154811061134d577f4e487b7100000000000000000000000000000000000000000000000000000000600052603260045260246000fd5b906000526020600020906007020160060160009054906101000a900460ff161515146113ae576040517f08c379a00000000000000000000000000000000000000000000000000000000081526004016113a590612106565b60405180910390fd5b6000600160008381526020019081526020016000208054905090506001600083815260200190815260200160002060405180608001604052808381526020018681526020018581526020013373ffffffffffffffffffffffffffffffffffffffff16815250908060018154018082558091505060019003906000526020600020906004020160009091909190915060008201518160000155602082015181600101908051906020019061146292919061185b565b50604082015181600201908051906020019061147f92919061185b565b5060608201518160030160006101000a81548173ffffffffffffffffffffffffffffffffffffffff021916908373ffffffffffffffffffffffffffffffffffffffff160217905550505050505050565b606060016000838152602001908152602001600020805480602002602001604051908101604052809291908181526020016000905b828210156116ba578382906000526020600020906004020160405180608001604052908160008201548152602001600182018054611541906123e7565b80601f016020809104026020016040519081016040528092919081815260200182805461156d906123e7565b80156115ba5780601f1061158f576101008083540402835291602001916115ba565b820191906000526020600020905b81548152906001019060200180831161159d57829003601f168201915b505050505081526020016002820180546115d3906123e7565b80601f01602080910402602001604051908101604052809291908181526020018280546115ff906123e7565b801561164c5780601f106116215761010080835404028352916020019161164c565b820191906000526020600020905b81548152906001019060200180831161162f57829003601f168201915b505050505081526020016003820160009054906101000a900473ffffffffffffffffffffffffffffffffffffffff1673ffffffffffffffffffffffffffffffffffffffff1673ffffffffffffffffffffffffffffffffffffffff168152505081526020019060010190611504565b505050509050919050565b600060016002811115611701577f4e487b7100000000000000000000000000000000000000000000000000000000600052602160045260246000fd5b600260003373ffffffffffffffffffffffffffffffffffffffff1673ffffffffffffffffffffffffffffffffffffffff16815260200190815260200160002060009054906101000a900460ff166002811115611786577f4e487b7100000000000000000000000000000000000000000000000000000000600052602160045260246000fd5b14156117c7576040517f08c379a00000000000000000000000000000000000000000000000000000000081526004016117be90612206565b60405180910390fd5b60028060003373ffffffffffffffffffffffffffffffffffffffff1673ffffffffffffffffffffffffffffffffffffffff16815260200190815260200160002060006101000a81548160ff0219169083600281111561184f577f4e487b7100000000000000000000000000000000000000000000000000000000600052602160045260246000fd5b02179055506001905090565b828054611867906123e7565b90600052602060002090601f01602090048101928261188957600085556118d0565b82601f106118a257805160ff19168380011785556118d0565b828001600101855582156118d0579182015b828111156118cf5782518255916020019190600101906118b4565b5b5090506118dd91906118e1565b5090565b5b808211156118fa5760008160009055506001016118e2565b5090565b600061191161190c8461224b565b612226565b90508281526020810184848401111561192957600080fd5b6119348482856123a5565b509392505050565b60008135905061194b81612670565b92915050565b60008135905061196081612687565b92915050565b600082601f83011261197757600080fd5b81356119878482602086016118fe565b91505092915050565b60008135905061199f8161269e565b92915050565b6000602082840312156119b757600080fd5b60006119c58482850161193c565b91505092915050565b600080604083850312156119e157600080fd5b60006119ef85828601611951565b9250506020611a0085828601611990565b9150509250929050565b600080600060608486031215611a1f57600080fd5b600084013567ffffffffffffffff811115611a3957600080fd5b611a4586828701611966565b935050602084013567ffffffffffffffff811115611a6257600080fd5b611a6e86828701611966565b925050604084013567ffffffffffffffff811115611a8b57600080fd5b611a9786828701611966565b9150509250925092565b600080600060608486031215611ab657600080fd5b600084013567ffffffffffffffff811115611ad057600080fd5b611adc86828701611966565b935050602084013567ffffffffffffffff811115611af957600080fd5b611b0586828701611966565b9250506040611b1686828701611990565b9150509250925092565b600060208284031215611b3257600080fd5b6000611b4084828501611990565b91505092915050565b60008060408385031215611b5c57600080fd5b6000611b6a85828601611990565b9250506020611b7b85828601611990565b9150509250929050565b6000611b918383611ec1565b905092915050565b6000611ba58383611f6b565b905092915050565b611bb681612338565b82525050565b611bc581612326565b82525050565b611bd481612326565b82525050565b6000611be58261229c565b611bef81856122d7565b935083602082028501611c018561227c565b8060005b85811015611c3d5784840389528151611c1e8582611b85565b9450611c29836122bd565b925060208a01995050600181019050611c05565b50829750879550505050505092915050565b6000611c5a826122a7565b611c6481856122e8565b935083602082028501611c768561228c565b8060005b85811015611cb25784840389528151611c938582611b99565b9450611c9e836122ca565b925060208a01995050600181019050611c7a565b50829750879550505050505092915050565b611ccd8161234a565b82525050565b611cdc8161234a565b82525050565b611ceb81612393565b82525050565b6000611cfc826122b2565b611d068185612304565b9350611d168185602086016123b4565b611d1f816124d7565b840191505092915050565b6000611d35826122b2565b611d3f8185612315565b9350611d4f8185602086016123b4565b611d58816124d7565b840191505092915050565b6000611d70601383612315565b9150611d7b826124e8565b602082019050919050565b6000611d93601a83612315565b9150611d9e82612511565b602082019050919050565b6000611db6600c83612315565b9150611dc18261253a565b602082019050919050565b6000611dd9602083612315565b9150611de482612563565b602082019050919050565b6000611dfc601483612315565b9150611e078261258c565b602082019050919050565b6000611e1f601383612315565b9150611e2a826125b5565b602082019050919050565b6000611e42602083612315565b9150611e4d826125de565b602082019050919050565b6000611e65601483612315565b9150611e7082612607565b602082019050919050565b6000611e886000836122f9565b9150611e9382612630565b600082019050919050565b6000611eab601383612315565b9150611eb682612633565b602082019050919050565b600060e0830160008301518482036000860152611ede8282611cf1565b9150506020830151611ef36020860182611bbc565b506040830151611f066040860182611fd5565b5060608301518482036060860152611f1e8282611cf1565b9150506080830151611f336080860182611fd5565b5060a083015184820360a0860152611f4b8282611cf1565b91505060c0830151611f6060c0860182611cc4565b508091505092915050565b6000608083016000830151611f836000860182611fd5565b5060208301518482036020860152611f9b8282611cf1565b91505060408301518482036040860152611fb58282611cf1565b9150506060830151611fca6060860182611bad565b508091505092915050565b611fde81612389565b82525050565b611fed81612389565b82525050565b6000611ffe82611e7b565b9150819050919050565b600060208201905081810360008301526120228184611bda565b905092915050565b600060208201905081810360008301526120448184611c4f565b905092915050565b60006020820190506120616000830184611cd3565b92915050565b600060208201905061207c6000830184611ce2565b92915050565b600060e082019050818103600083015261209c818a611d2a565b90506120ab6020830189611bcb565b6120b86040830188611fe4565b81810360608301526120ca8187611d2a565b90506120d96080830186611fe4565b81810360a08301526120eb8185611d2a565b90506120fa60c0830184611cd3565b98975050505050505050565b6000602082019050818103600083015261211f81611d63565b9050919050565b6000602082019050818103600083015261213f81611d86565b9050919050565b6000602082019050818103600083015261215f81611da9565b9050919050565b6000602082019050818103600083015261217f81611dcc565b9050919050565b6000602082019050818103600083015261219f81611def565b9050919050565b600060208201905081810360008301526121bf81611e12565b9050919050565b600060208201905081810360008301526121df81611e35565b9050919050565b600060208201905081810360008301526121ff81611e58565b9050919050565b6000602082019050818103600083015261221f81611e9e565b9050919050565b6000612230612241565b905061223c8282612419565b919050565b6000604051905090565b600067ffffffffffffffff821115612266576122656124a8565b5b61226f826124d7565b9050602081019050919050565b6000819050602082019050919050565b6000819050602082019050919050565b600081519050919050565b600081519050919050565b600081519050919050565b6000602082019050919050565b6000602082019050919050565b600082825260208201905092915050565b600082825260208201905092915050565b600081905092915050565b600082825260208201905092915050565b600082825260208201905092915050565b600061233182612369565b9050919050565b600061234382612369565b9050919050565b60008115159050919050565b60008190506123648261265c565b919050565b600073ffffffffffffffffffffffffffffffffffffffff82169050919050565b6000819050919050565b600061239e82612356565b9050919050565b82818337600083830152505050565b60005b838110156123d25780820151818401526020810190506123b7565b838111156123e1576000848401525b50505050565b600060028204905060018216806123ff57607f821691505b6020821081141561241357612412612479565b5b50919050565b612422826124d7565b810181811067ffffffffffffffff82111715612441576124406124a8565b5b80604052505050565b7f4e487b7100000000000000000000000000000000000000000000000000000000600052602160045260246000fd5b7f4e487b7100000000000000000000000000000000000000000000000000000000600052602260045260246000fd5b7f4e487b7100000000000000000000000000000000000000000000000000000000600052604160045260246000fd5b6000601f19601f8301169050919050565b7f4a6f6220686173206265656e20636c6f73656400000000000000000000000000600082015250565b7f4e6f742063616c6c6c6564206279206120726563727569746572000000000000600082015250565b7f4e6f7420796f7572206a6f620000000000000000000000000000000000000000600082015250565b7f4f6e6c7920446576732061726520616c6c6f77656420746f2070726f706f7365600082015250565b7f4661696c656420746f2073656e64204574686572000000000000000000000000600082015250565b7f416c726561647920612052656372756974657200000000000000000000000000600082015250565b7f4f6e6c7920526563727569746572732063616e2063726561746520726f6c6573600082015250565b7f4e6f207a65726f207061796d656e74206a6f6273000000000000000000000000600082015250565b50565b7f416c7265616479206120446576656c6f70657200000000000000000000000000600082015250565b6003811061266d5761266c61244a565b5b50565b61267981612326565b811461268457600080fd5b50565b61269081612338565b811461269b57600080fd5b50565b6126a781612389565b81146126b257600080fd5b5056fea2646970667358221220bc6d5dc792ba08755a029302edfea63acbf6a179904e8e77d35ef5f9fcd6aad864736f6c63430008040033",
  "linkReferences": {},
  "deployedLinkReferences": {}
}